{
  "_format": "hh-sol-artifact-1",
  "contractName": "LandRegistry",
  "sourceName": "contracts/LandRegistry.sol",
  "abi": [
    {
      "inputs": [],
      "name": "getAllLandIds",
      "outputs": [
        {
          "internalType": "uint256[]",
          "name": "",
          "type": "uint256[]"
        }
      ],
      "stateMutability": "view",
      "type": "function"
    },
    {
      "inputs": [
        {
          "internalType": "uint256",
          "name": "_landId",
          "type": "uint256"
        }
      ],
      "name": "getLand",
      "outputs": [
        {
          "internalType": "uint256",
          "name": "",
          "type": "uint256"
        },
        {
          "internalType": "string",
          "name": "",
          "type": "string"
        },
        {
          "internalType": "string",
          "name": "",
          "type": "string"
        },
        {
          "internalType": "uint256",
          "name": "",
          "type": "uint256"
        },
        {
          "internalType": "address",
          "name": "",
          "type": "address"
        }
      ],
      "stateMutability": "view",
      "type": "function"
    },
    {
      "inputs": [
        {
          "internalType": "uint256",
          "name": "_landId",
          "type": "uint256"
        }
      ],
      "name": "isLandRegistered",
      "outputs": [
        {
          "internalType": "bool",
          "name": "",
          "type": "bool"
        }
      ],
      "stateMutability": "view",
      "type": "function"
    },
    {
      "inputs": [
        {
          "internalType": "uint256",
          "name": "_landId",
          "type": "uint256"
        },
        {
          "internalType": "string",
          "name": "_ownerName",
          "type": "string"
        },
        {
          "internalType": "string",
          "name": "_location",
          "type": "string"
        },
        {
          "internalType": "uint256",
          "name": "_price",
          "type": "uint256"
        }
      ],
      "name": "registerLand",
      "outputs": [],
      "stateMutability": "nonpayable",
      "type": "function"
    },
    {
      "inputs": [
        {
          "internalType": "uint256",
          "name": "_landId",
          "type": "uint256"
        },
        {
          "internalType": "address",
          "name": "_newOwner",
          "type": "address"
        },
        {
          "internalType": "string",
          "name": "_newOwnerName",
          "type": "string"
        }
      ],
      "name": "transferLand",
      "outputs": [],
      "stateMutability": "nonpayable",
      "type": "function"
    }
  ],
  "bytecode": "0x608060405234801561001057600080fd5b506110a5806100206000396000f3fe608060405234801561001057600080fd5b50600436106100575760003560e01c80632e8782bc1461005c57806339ddfe241461008c578063cde6d0f8146100a8578063d7dee192146100c4578063f02dd53f146100e2575b600080fd5b6100766004803603810190610071919061075a565b610116565b60405161008391906107a2565b60405180910390f35b6100a660048036038101906100a19190610961565b610142565b005b6100c260048036038101906100bd91906109d0565b6102c3565b005b6100cc610457565b6040516100d99190610b2d565b60405180910390f35b6100fc60048036038101906100f7919061075a565b6104af565b60405161010d959493929190610bec565b60405180910390f35b600080600083815260200190815260200160002060040160149054906101000a900460ff169050919050565b60008084815260200190815260200160002060040160149054906101000a900460ff166101a4576040517f08c379a000000000000000000000000000000000000000000000000000000000815260040161019b90610c99565b60405180910390fd5b60008084815260200190815260200160002060040160009054906101000a900473ffffffffffffffffffffffffffffffffffffffff1673ffffffffffffffffffffffffffffffffffffffff163373ffffffffffffffffffffffffffffffffffffffff1614610247576040517f08c379a000000000000000000000000000000000000000000000000000000000815260040161023e90610d05565b60405180910390fd5b8160008085815260200190815260200160002060040160006101000a81548173ffffffffffffffffffffffffffffffffffffffff021916908373ffffffffffffffffffffffffffffffffffffffff1602179055508060008085815260200190815260200160002060010190816102bd9190610f31565b50505050565b60008085815260200190815260200160002060040160149054906101000a900460ff1615610326576040517f08c379a000000000000000000000000000000000000000000000000000000000815260040161031d9061104f565b60405180910390fd5b6040518060c001604052808581526020018481526020018381526020018281526020013373ffffffffffffffffffffffffffffffffffffffff1681526020016001151581525060008086815260200190815260200160002060008201518160000155602082015181600101908161039d9190610f31565b5060408201518160020190816103b39190610f31565b506060820151816003015560808201518160040160006101000a81548173ffffffffffffffffffffffffffffffffffffffff021916908373ffffffffffffffffffffffffffffffffffffffff16021790555060a08201518160040160146101000a81548160ff021916908315150217905550905050600184908060018154018082558091505060019003906000526020600020016000909190919091505550505050565b606060018054806020026020016040519081016040528092919081815260200182805480156104a557602002820191906000526020600020905b815481526020019060010190808311610491575b5050505050905090565b600060608060008060008087815260200190815260200160002060040160149054906101000a900460ff16610519576040517f08c379a000000000000000000000000000000000000000000000000000000000815260040161051090610c99565b60405180910390fd5b60008060008881526020019081526020016000206040518060c00160405290816000820154815260200160018201805461055290610d54565b80601f016020809104026020016040519081016040528092919081815260200182805461057e90610d54565b80156105cb5780601f106105a0576101008083540402835291602001916105cb565b820191906000526020600020905b8154815290600101906020018083116105ae57829003601f168201915b505050505081526020016002820180546105e490610d54565b80601f016020809104026020016040519081016040528092919081815260200182805461061090610d54565b801561065d5780601f106106325761010080835404028352916020019161065d565b820191906000526020600020905b81548152906001019060200180831161064057829003601f168201915b50505050508152602001600382015481526020016004820160009054906101000a900473ffffffffffffffffffffffffffffffffffffffff1673ffffffffffffffffffffffffffffffffffffffff1673ffffffffffffffffffffffffffffffffffffffff1681526020016004820160149054906101000a900460ff161515151581525050905080600001518160200151826040015183606001518460800151955095509550955095505091939590929450565b6000604051905090565b600080fd5b600080fd5b6000819050919050565b61073781610724565b811461074257600080fd5b50565b6000813590506107548161072e565b92915050565b6000602082840312156107705761076f61071a565b5b600061077e84828501610745565b91505092915050565b60008115159050919050565b61079c81610787565b82525050565b60006020820190506107b76000830184610793565b92915050565b600073ffffffffffffffffffffffffffffffffffffffff82169050919050565b60006107e8826107bd565b9050919050565b6107f8816107dd565b811461080357600080fd5b50565b600081359050610815816107ef565b92915050565b600080fd5b600080fd5b6000601f19601f8301169050919050565b7f4e487b7100000000000000000000000000000000000000000000000000000000600052604160045260246000fd5b61086e82610825565b810181811067ffffffffffffffff8211171561088d5761088c610836565b5b80604052505050565b60006108a0610710565b90506108ac8282610865565b919050565b600067ffffffffffffffff8211156108cc576108cb610836565b5b6108d582610825565b9050602081019050919050565b82818337600083830152505050565b60006109046108ff846108b1565b610896565b9050828152602081018484840111156109205761091f610820565b5b61092b8482856108e2565b509392505050565b600082601f8301126109485761094761081b565b5b81356109588482602086016108f1565b91505092915050565b60008060006060848603121561097a5761097961071a565b5b600061098886828701610745565b935050602061099986828701610806565b925050604084013567ffffffffffffffff8111156109ba576109b961071f565b5b6109c686828701610933565b9150509250925092565b600080600080608085870312156109ea576109e961071a565b5b60006109f887828801610745565b945050602085013567ffffffffffffffff811115610a1957610a1861071f565b5b610a2587828801610933565b935050604085013567ffffffffffffffff811115610a4657610a4561071f565b5b610a5287828801610933565b9250506060610a6387828801610745565b91505092959194509250565b600081519050919050565b600082825260208201905092915050565b6000819050602082019050919050565b610aa481610724565b82525050565b6000610ab68383610a9b565b60208301905092915050565b6000602082019050919050565b6000610ada82610a6f565b610ae48185610a7a565b9350610aef83610a8b565b8060005b83811015610b20578151610b078882610aaa565b9750610b1283610ac2565b925050600181019050610af3565b5085935050505092915050565b60006020820190508181036000830152610b478184610acf565b905092915050565b610b5881610724565b82525050565b600081519050919050565b600082825260208201905092915050565b60005b83811015610b98578082015181840152602081019050610b7d565b60008484015250505050565b6000610baf82610b5e565b610bb98185610b69565b9350610bc9818560208601610b7a565b610bd281610825565b840191505092915050565b610be6816107dd565b82525050565b600060a082019050610c016000830188610b4f565b8181036020830152610c138187610ba4565b90508181036040830152610c278186610ba4565b9050610c366060830185610b4f565b610c436080830184610bdd565b9695505050505050565b7f4c616e6420646f6573206e6f7420657869737400000000000000000000000000600082015250565b6000610c83601383610b69565b9150610c8e82610c4d565b602082019050919050565b60006020820190508181036000830152610cb281610c76565b9050919050565b7f4e6f74206c616e64206f776e6572000000000000000000000000000000000000600082015250565b6000610cef600e83610b69565b9150610cfa82610cb9565b602082019050919050565b60006020820190508181036000830152610d1e81610ce2565b9050919050565b7f4e487b7100000000000000000000000000000000000000000000000000000000600052602260045260246000fd5b60006002820490506001821680610d6c57607f821691505b602082108103610d7f57610d7e610d25565b5b50919050565b60008190508160005260206000209050919050565b60006020601f8301049050919050565b600082821b905092915050565b600060088302610de77fffffffffffffffffffffffffffffffffffffffffffffffffffffffffffffffff82610daa565b610df18683610daa565b95508019841693508086168417925050509392505050565b6000819050919050565b6000610e2e610e29610e2484610724565b610e09565b610724565b9050919050565b6000819050919050565b610e4883610e13565b610e5c610e5482610e35565b848454610db7565b825550505050565b600090565b610e71610e64565b610e7c818484610e3f565b505050565b5b81811015610ea057610e95600082610e69565b600181019050610e82565b5050565b601f821115610ee557610eb681610d85565b610ebf84610d9a565b81016020851015610ece578190505b610ee2610eda85610d9a565b830182610e81565b50505b505050565b600082821c905092915050565b6000610f0860001984600802610eea565b1980831691505092915050565b6000610f218383610ef7565b9150826002028217905092915050565b610f3a82610b5e565b67ffffffffffffffff811115610f5357610f52610836565b5b610f5d8254610d54565b610f68828285610ea4565b600060209050601f831160018114610f9b5760008415610f89578287015190505b610f938582610f15565b865550610ffb565b601f198416610fa986610d85565b60005b82811015610fd157848901518255600182019150602085019450602081019050610fac565b86831015610fee5784890151610fea601f891682610ef7565b8355505b6001600288020188555050505b505050505050565b7f4c616e6420616c72656164792065786973747300000000000000000000000000600082015250565b6000611039601383610b69565b915061104482611003565b602082019050919050565b600060208201905081810360008301526110688161102c565b905091905056fea2646970667358221220c2c681cdcd457d45c6d27968bdadf3b35dabdc886d8e864e412d201ffac0b40364736f6c63430008140033",
  "linkReferences": {},
  "deployedLinkReferences": {}
}